:1000000071C000008EC000008CC000008AC00000DB
:1000100088C0000086C0000084C0000082C00000CC
:1000200080C000007EC000007CC000007AC00000DC
:1000300078C0000076C0000074C0000072C00000EC
:1000400070C000006EC000006CC000006AC00000FC
:1000500068C0000066C0000064C0000062C000000C
:1000600060C000005EC000005CC000005AC000001C
:1000700058C0000056C0000054C0000052C000002C
:1000800050C000004EC000004CC000004AC000003C
:1000900048C0000046C0000044C0000042C000004C
:1000A00040C000003EC000003CC000003AC000005C
:1000B00038C0000036C0000034C0000032C000006C
:1000C00030C000002EC000002CC000002AC000007C
:1000D00028C0000026C0000024C0000022C000008C
:1000E00020C0000011241FBECFEFD1E2DEBFCDBF84
:1000F00000E00CBF12E0A0E0B2E0E6EDF2E000E0CC
:100100000BBF02C007900D92AA30B107D9F722E0C9
:10011000AAE0B2E001C01D92AE30B207E1F785D08F
:10012000D8C06ECF259A109285001092840083EC7F
:1001300099E0909387008093860082E88093800006
:100140008BE180938100E8E8F0E081E490E0918326
:100150008083FDCF8FEF87B98AB981E08BB98FE3B8
:1001600088B992E09BB988B994E09BB988B998E0C6
:100170009BB988B908958FEF8DB980BB81E081BBB1
:100180008FE38EB992E091BB8EB994E091BB9DEE66
:100190009EB998E091BB8EB90895CF93DF93CDB708
:1001A000DEB72A970FB6F894DEBF0FBECDBF8AE048
:1001B000E0E0F2E0DE01119601900D928A95E1F700
:1001C0008FEF8BB988B980910A0290910B028A3027
:1001D00091055CF484E08BB9E0910A02F0910B0286
:1001E000EC0FFD1F818188B917C024E02BB96AE0AC
:1001F00070E048D0E1E0F0E0EC0FFD1FE80FF91FE0
:10020000808188B988E08BB9E1E0F0E0EC0FFD1F58
:10021000E60FF71F808188B92A960FB6F894DEBFE3
:100220000FBECDBFDF91CF91089511B88FEF87B981
:100230008AB98DB980BB8EDF9EDF009B1EC0809186
:100240000C0290910D0206970CF46CDF80E88BB9DC
:100250002FEF89E698E1215080409040E1F700C0FF
:1002600000001BB880910A0290910B0201969093B6
:100270000B0280930A0291DF02C0019953DF80E0F4
:1002800090E0089597FB072E16F4009406D077FDB2
:1002900008D00BD007FC05D03EF4909581959F4F78
:1002A0000895709561957F4F0895AA1BBB1B51E17E
:1002B00007C0AA1FBB1FA617B70710F0A61BB70BD6
:1002C000881F991F5A95A9F780959095BC01CD017B
:0602D0000895F894FFCF31
:0A02D6003F065B4F66ED7D077F6F6A
:00000001FF
